:0400000098EF34F051
:1069160000F01200380E8012C00E9216120007C048
:10692600D9FF08C0DAFFDF501200266A256A000E7A
:10693600F86E000166EF35F0016EFA0E00F0E82EF3
:10694600FDD7012EFAD71200026E000E036E04D098
:10695600050E9FEC34F0032A0350025CD8A0120007
:10696600F7D78DEC34F0000E0C6E06D00CC009F093
:106976003F0E4EEC35F00C2A020E0C64F7D71200CF
:10698600036E9568808280940350E8EC34F0808032
:106996008BEC34F083CF02F080900350D5EC34F0CA
:1069A60002501200016E06D080880ED080860CD070
:1069B600808A0AD00150000AD8B4F6D7010AD8B4A2
:1069C600F5D7030AD8B4F4D71200016E06D0809822
:1069D6000ED080960CD0809A0AD00150000AD8B406
:1069E600F6D7010AD8B4F5D7030AD8B4F4D71200FB
:1069F60001500302F3CF05F0F4CF06F00150040274
:106A0600F350062602500302F350062605C001F095
:106A160006C002F01200046E000E056E0BD0000ECA
:106A2600066E04D0640EA7EC34F0062A090E06643E
:106A3600F9D7052A0450055CD8B01200F0D70AD061
:106A460010C0F6FF11C0F7FF0800F55092EC35F0C4
:106A5600104A112A10C0F6FF11C0F7FF0800F550C2
:106A66000009D8B41200ECD7000E106E10D010C07A
:106A76000CF0000E2AEC36F0000E0F6E04D0000E5D
:106A8600F6EC35F00F2A7F0E0F64F9D7102A070EA1
:106A96001064EDD712000B6E0950C3EC34F00A6E89
:106AA6000ABEFAD7000E956EF90E80160950E8EC6C
:106AB60034F00BC083FF80808BEC34F0809009505B
:106AC600D5EC34F01200070EB4120F0EC16EB4EC02
:106AD60034F037EC35F07F0E116EEC0E106E22ECB2
:106AE60035F0020E0EEC35F0200E166E1C0E176EEB
:106AF600400E4DEC37F0020E0EEC35F037EC35F06B
:106B06000C0E166E460E176E280E186E1E0EAFEC85
:106B160036F0020E0EEC35F037EC35F0DCD70D6EA4
:106B2600200E0D5E000E0F6E000E0E6E0F50800AC8
:106B3600800F050ED8B40E5CD8B01ED00DC001F083
:106B4600026A000E046E050E036EFBEC34F00B0EAB
:106B56000B6E7E0E0C6E01500B2602500C220E5050
:106B66000B24076E0F500C20086E92EC34F0F6ECF6
:106B760035F00E4A0F2ADAD7000EF6EC35F0120081
:106B860025C001F0026A000E046E400E036EFBEC97
:106B960036F00150C3EC34F0096E09BEF1D79568A2
:106BA600060E801225C001F0026A000E046E400E29
:106BB600036EFBEC36F00150E8EC34F080808BEC91
:106BC60034F083CF0AF0809025C001F0026A000EEF
:106BD600046E400E036EFBEC36F00150D5EC34F03B
:106BE600252A0A5012000A6E25C001F0026A000E1C
:106BF600046E400E036EFBEC36F00150C3EC34F02D
:106C0600096E09BEF1D7000E956E809280840AC087
:106C160083FF25C001F0026A000E046E400E036E6B
:106C2600FBEC36F00150E8EC34F080808BEC34F06D
:106C3600809025C001F0026A000E046E400E036EBD
:106C4600FBEC36F00150D5EC34F0252A12000D6E1F
:106C56000DC025F00CC026F0000E0E6E11D00EC031
:106C660009F0400E4EEC35F00EC009F00C50B80994
:106C76004EEC35F00EC009F0C00E4EEC35F00E2A83
:106C8600010E0E64ECD70DC001F0026A000E046E10
:106C9600400E036EFBEC36F00150096E0D503F0BB3
:106CA60040094EEC35F00DC001F0026A000E046E8C
:106CB600400E036EFBEC36F00150096E0C50B8091D
:106CC6004EEC35F01200146E0FC001F0026A000E91
:106CD600046E080E036EFBEC36F00150156E15C0FF
:106CE6000CF014502AEC36F0C3EC35F0136E0FC0DE
:106CF60001F0026A000E046E080E036EFBEC36F01D
:106D06000150156E15C00CF014502AEC36F0C3EC89
:106D160035F0136E0FC001F0026A000E046E080E05
:106D2600036EFBEC36F00150156E15C00CF01450D6
:106D36002AEC36F00FC011F0070E1116010E126E76
:106D4600112A02D0D8901236112EFCD712501312E7
:106D56001350F6EC35F012001A6E000E1B6E1ED0A4
:106D660016501B240F6EEB0EF66E7F0EF76E0800A4
:106D7600F5CF10F01A5066EC36F016501B240F6E45
:106D8600EB0EF66E7F0EF76E0800F5CF10F01A5078
:106D96001724196E190466EC36F01B2A18501B5C72
:106DA600D8A0DED7000E1B6E1ED016C00FF0EB0E5D
:106DB600F66E7F0EF76E0800F5CF10F01A501B2402
:106DC60066EC36F016501824196E19040F6EEB0E89
:106DD600F66E7F0EF76E0800F5CF10F01A501B24E2
:106DE60066EC36F01B2A17501B5CD8B01200DDD7B4
:106DF600000E066E0450800AF36E800EF35C000EE1
:106E0600D8B4035CD8B006D0036C041ED8B0042AEC
:106E1600010E066E0250800AF36E800EF35C000EC1
:106E2600D8B4015CD8B006D0016C021ED8B0022AD4
:106E3600010E061A000E086E000E076E04500310AF
:106E4600D8B41CD0010E056E04D0D8900336043693
:106E5600052A04AEFAD7D890073608360350015CE7
:106E660004500258D8A005D00350015E0450025ABF
:106E76000780D89004320332052EEDD70650D8B4D9
:106E860004D0076C081ED8B0082A07C001F008C055
:106E960002F01200206E17C021F0226A000E246E46
:106EA600000E236E1750020DF31EF41EF34AF42A49
:106EB600010EF3241E6E000EF4201F6E000E1B6ED4
:106EC600010E1A6E000E1D6E000E1C6EA0D016501E
:106ED60023240F6EEB0EF66E7F0EF76E0800F5CFCD
:106EE60010F02050212466EC36F0165023240F6E45
:106EF600EB0EF66E7F0EF76E0800F5CF10F0215000
:106F06000008202466EC36F02350000816240F6E85
:106F1600EB0EF66E7F0EF76E0800F5CF10F02150DF
:106F26000008202466EC36F02350000816240F6E65
:106F3600EB0EF66E7F0EF76E0800F5CF10F02050C0
:106F4600212466EC36F0165021240F6EEB0EF66EF9
:106F56007F0EF76E0800F5CF10F02050232466EC64
:106F660036F0165021240F6EEB0EF66E7F0EF76E7E
:106F76000800F5CF10F023500008202466EC36F008
:106F86002150000816240F6EEB0EF66E7F0EF76E7C
:106F96000800F5CF10F023500008202466EC36F0E8
:106FA6002150000816240F6EEB0EF66E7F0EF76E5C
:106FB6000800F5CF10F02050232466EC36F0234A63
:106FC600242A1A501C261B501D22020E1A26000EB9
:106FD6001B221CC018F01DC019F0D890183619369F
:106FE6001E5018261F5019221950800A800F010EB4
:106FF600D8B4185CD8A00BD02106D8A022061E5003
:107006001C261F501D22020E1E26000E1F22225075
:10701600800A186E2350215C2450800A1858D8A084
:10702600120055D70000000000000000000000001C
:10703600000000000000000000000000000000004A
:10704600000000000000000000000000000000003A
:10705600000000000000000000000000000000002A
:10706600000000000000000000000000000000001A
:1070760000C0C0C0C0C0C0C0C0C00000000000004A
:1070860000000080C0C0C0C0C0C08000000000007A
:1070960000000000000000000000000000000000EA
:1070A60000000000000080808080808080800000DA
:1070B60000008080808080808080808000000000CA
:1070C600000000808080808080808080808000003A
:1070D600000000000000000000000080808080802A
:1070E600808080808080808080000000000080801A
:1070F60080FFFFFFFFFFFFFFFFFF80808080808013
:107106008000008F9F9F9F9F9F9F8F000000000021
:1071160000000000008080808080808080808080E9
:10712600808080000000FFFFFFFFFFFF1F000000C0
:10713600E0FCFFFFFFFFFFFF3F0F070100C0E0F08D
:10714600FCFEFFFFFFFFFFFFFFFFFFFFFFFF00004B
:10715600000000F0F8F8FCFCFEFEFFFF1F1F1F1FDB
:107166001FFFFFFFFFFFFFFFFF0010181E1F1F1F5F
:107176001FFFFFFFFFFFFFFFFFFF1F1F1F1F0F0761
:10718600010000FFFFFFFFFFFFFFFF0000F0F8F820
:10719600FCFCFEFFFFFF1F1F1F1FFFFFFFFFFFFF80
:1071A600FFFFFF000000FFFFFFFF3F0100C0F8FFE9
:1071B600FFFFFF7F1F0703C0E0F0FCFEFFFFFFFF9E
:1071C600FFFFFFFFFFFF7F3F3F1F0F070703000083
:1071D600000000FFFFFFFFFFFFFFFFFFF8F8F8F8D2
:1071E600F8FFFF7F7F3F3F1F1F00000000000000E9
:1071F60000FFFFFFFFFFFFFFFFFF00000000000092
:10720600000000FFFFFFFFFFFFFFFF0000FFFFFF83
:10721600FFFFFFFFFFFF00000000FFFFFFFFFFFF74
:10722600FFFFFF000000FFFF7F0780F0FEFF7F3FAC
:107236000FC3E0F0FCFEFFFFFFFFFF7F7F3F1F0F46
:107246000F87C3C1E1E0F0F0F8F8FCFEFEFF000096
:10725600000000FFFFFFFFFFFFFFFFFF818181812D
:1072660081E1E0E0E0E0E0E0E00000000000000096
:1072760000FFFFFFFFFFFFFFFFFF00000000000011
:10728600000000FFFFFFFFFFFFFFFF0000FFFFFF03
:10729600FFFFFFFFFFFF80808080FFFFFFFFFFFFF4
:1072A600FFFFFF0000007F0FC0F83FCFE7F1FCFEB5
:1072B6007F7F3F9F9FCFE7E3F3F1F8F8FC7E7E7F69
:1072C6003F3F3F1F1F1F0F0F0F0F078787830000CA
:1072D6000000001F1F1F1F1F1F1F1F1F1F1F1F1F15
:1072E6001F0F0F0707030301000000000000000046
:1072F600001F1F1F1F1F1F1F1F1F00000000000071
:107306000000001F1F1F1F1F1F1F1F00001F1F1F22
:107316001F1F1F1F1F1F1F1F1F1FFFFFFFFFFFFF37
:10732600FFFFFF00000060323F1E0F171B1B4D6E54
:107336006E6767677373737179797878787C7C7C0C
:107346007C7C7E7E7E7E7F7F7F7F7F7F7F7F00004F
:1073560000000000F0F02000C0E0A0E0C000C0E0A7
:10736600202000F8F820E0C000E0E020E0C000C0E7
:10737600E020E0C000F8F800C0E020E0C000C0E077
:1073860020E0E000ECEC00C0E0A0E0C000C0E0A01F
:10739600200000000000000000003F3F3F3F3F3F4D
:1073A6003F3F3F000000000000000000000000001A
:1073B60000000000000000000000000000000000C7
:1073C60000000000000000000000000000000000B7
:1073D6000000000003070400030704040400030779
:1073E6000404000707000707000707000707000354
:1073F60007040703000707000307040703001A1F13
:10740600151D0C0007070003070404040004050704
:107416000300000000000000000000000000000063
:107426000000000000FFFFFFFFFFFFFFFFFFFFFF61
:10743600FFFFFFFFFFFFFFFFFFFFFFFFFFFFFFFF56
:10744600FFFFFFFFFFFFFFFFFFFFFFFFFFFFFFFF46
:10745600FFFFFFFFFFFFFFFFFFFFFFFFFFFFFFFF36
:10746600FFFFFFFFFFFFFFFFFFFFFFFFFFFFFFFF26
:10747600FF3F3F3F3F3F3F3F3F3FFFFFFFFFFFFFD6
:10748600FFFFFF7F3F3F3F3F3F3F7FFFFFFFFFFF86
:10749600FFFFFFFFFFFFFFFFFFFFFFFFFFFFFFFFF6
:1074A600FFFFFFFFFFFF7F7F7F7F7F7F7F7FFFFFE6
:1074B600FFFF7F7F7F7F7F7F7F7F7F7FFFFFFFFFD6
:1074C600FFFFFF7F7F7F7F7F7F7F7F7F7F7FFFFF46
:1074D600FFFFFFFFFFFFFFFFFFFFFF7F7F7F7F7F36
:1074E6007F7F7F7F7F7F7F7F7FFFFFFFFFFF7F7F26
:1074F6007F0000000000000000007F7F7F7F7F7F0D
:107506007FFFFF7060606060606070FFFFFFFFFFDD
:10751600FFFFFFFFFF7F7F7F7F7F7F7F7F7F7F7FF5
:107526007F7F7FFFFFFF000000000000E0FFFFFFFE
:107536001F03000000000000C0F0F8FEFF3F1F0F11
:107546000301000000000000000000000000FFFF33
:10755600FFFFFF0F0707030301010000E0E0E0E083
:10756600E00000000000000000FFEFE7E1E0E0E0DF
:10757600E0000000000000000000E0E0E0E0F0F8BD
:10758600FEFFFF0000000000000000FFFF0F0707DE
:10759600030301000000E0E0E0E00000000000005E
:1075A600000000FFFFFF00000000C0FEFF3F0700D5
:1075B60000000080E0F8FC3F1F0F03010000000000
:1075C60000000000000080C0C0E0F0F8F8FCFFFFFB
:1075D600FFFFFF000000000000000000070707078C
:1075E6000700008080C0C0E0E0FFFFFFFFFFFFFF55
:1075F600FF000000000000000000FFFFFFFFFFFF8C
:10760600FFFFFF0000000000000000FFFF00000079
:10761600000000000000FFFFFFFF00000000000068
:10762600000000FFFFFF000080F87F0F010080C010
:10763600F03C1F0F030100000000008080C0E0F056
:10764600F0783C3E1E1F0F0F070703010100FFFFE6
:10765600FFFFFF0000000000000000007E7E7E7E2F
:107666007E1E1F1F1F1F1F1F1FFFFFFFFFFFFFFFA6
:10767600FF000000000000000000FFFFFFFFFFFF0B
:10768600FFFFFF0000000000000000FFFF000000F9
:107696000000000000007F7F7F7F000000000000E8
:1076A600000000FFFFFF80F03F07C030180E030107
:1076B6008080C0606030181C0C0E07070381818033
:1076C600C0C0C0E0E0E0F0F0F0F0F878787CFFFFB2
:1076D600FFFFFFE0E0E0E0E0E0E0E0E0E0E0E0E047
:1076E600E0F0F0F8F8FCFCFEFFFFFFFFFFFFFFFFF6
:1076F600FFE0E0E0E0E0E0E0E0E0FFFFFFFFFFFFAB
:10770600FFFFFFE0E0E0E0E0E0E0E0FFFFE0E0E0D8
:10771600E0E0E0E0E0E0E0E0E0E0000000000000A3
:10772600000000FFFFFF9FCDC0E1F0E8E4E4B29166
:10773600919898988C8C8C8E86868787878383838E
:107746008383818181818080808080808080FFFF2B
:10775600FFFFFFFF0F0FDFFF3F1F5F1F3FFF3F1FB3
:10776600DFDFFF0707DF1F3FFF1F1FDF1F3FFF3F53
:107776001FDF1F3FFF0707FF3F1FDF1F3FFF3F1FA3
:10778600DF1F1FFF1313FF3F1F5F1F3FFF3F1F5FDB
:10779600DFFFFFFFFFFFFFFFFFFFC0C0C0C0C0C08D
:1077A600C0C0C0FFFFFFFFFFFFFFFFFFFFFFFFFFA0
:1077B600FFFFFFFFFFFFFFFFFFFFFFFFFFFFFFFFD3
:1077C600FFFFFFFFFFFFFFFFFFFFFFFFFFFFFFFFC3
:1077D600FFFFFFFFFCF8FBFFFCF8FBFBFBFFFCF8E1
:1077E600FBFBFFF8F8FFF8F8FFF8F8FFF8F8FFFCE6
:1077F600F8FBF8FCFFF8F8FFFCF8FBF8FCFFE5E007
:10780600EAE2F3FFF8F8FFFCF8FBFBFBFFFBFAF8F4
:10781600FCFFFFFFFFFFFFFFFFFFFFFFFFFFFFFF75
:10782600FFFFFFFFFF000000000000000000000057
:107836000000000000000000000000000000000042
:107846000000000000000000000000000000000032
:107856000000000000000000000000000000000022
:107866000000000000000000000000000000000012
:107876000000000000000000000000000000000002
:1078860000000000000000000000000000000000F2
:1078960000000000000000000000000000000000E2
:1078A60000000000000000000000000000000000D2
:1078B60000000000000000000000000000000000C2
:1078C6000000000000000000000080E0E0F8F8FC86
:1078D600FC7E3E3F7FFFFFFFFFFFFFFF7F3F3E3EF9
:1078E600F8E0C000000000000000000000000000FA
:1078F6000000000000000000000000000000000082
:107906000000000000000000000000000000000071
:107916000000000000000000000000000000000061
:107926000000000000000000000000000000000051
:107936000000000000000000000000000000000041
:107946000000000000000000F0FEFF7F3F1F7FF1F7
:10795600E0800000000003071F3FF3E18000000005
:107966000001071F3EF8F0C0800000000000000084
:107976000000000000000000000000000000000001
:1079860000000000000000000000000000000000F1
:1079960000000000000000000000000000000000E1
:1079A60000000000000000000000000000000000D1
:1079B60000000000000000000000000000000000C1
:1079C600000000000000000007030100000080E046
:1079D600F3FFFEFCF0E08000000000C3E7FFFCF0D0
:1079E600E080000000000107070000000000000022
:1079F6000000000000000000000000000000000081
:107A06000000000000000000000000000000000070
:107A16000000000000000000000000000000000060
:107A26000000000000000000000000000000000050
:107A36000000000000000000000000000000000040
:107A460000000000000000000000000000070F0F0B
:107A56001F1F3F3F3F3F7F7F7E7E7F7F3F3F3F1F12
:107A66001F0F0F04000000000000000000000000CF
:107A76000000000000000000000000000000000000
:107A860000000000000000000000000000000000F0
:107A960000000000000000000000000000000000E0
:107AA600000000000000000000000000E0FFFF7F73
:107AB600FCF08000C0F0FE3FFFFE000000F0F0008A
:107AC60000F0F0783838383838300000F0F03030D0
:107AD600303030F0F000C0F0F07838383838F0F058
:107AE600C000E0F0783838383838300000F0F080E0
:107AF60080808080F0F00000F0F00000F0F0303080
:107B0600303030F0F0C0000000000000000000003F
:107B1600000000000000000000000000000000005F
:107B26000000000000000000000000203F3F0700AA
:107B3600010F3F3E1F0F01003F3F3F00003F3F0048
:107B4600003F3F7070707070703000003F3F0E0E47
:107B56000E0E0E3F3B000F3F3F70707070703F3F40
:107B66000F001F3F7870707070703010003F3F0339
:107B7600030303033F3F00003F3F00003F3F0E0E5D
:107B86000E0E0E0F070100000000000000000000AE
:107B960000000000000000000000000000000000DF
:107BA60000000000000000000000000000000000CF
:107BB60000000000000000000000000000000000BF
:107BC60000000000000000000000000000000000AF
:107BD600000000000000000000000000000000009F
:107BE600000000000000000000000000000000008F
:107BF600000000000000000000000000000000007F
:107C0600000000000000000000000000000000006E
:107C1600000000000000000000000000000000005E
:107C26000000000000000000000000005F000000EF
:107C360007000700147F147F14242A7F2A122313B7
:107C460008646236495522500005030000001C22D4
:107C560041000041221C00082A1C2A0808083E0888
:107C660008005030000008080808080030300000FE
:107C760020100804023E5149453E00427F40004222
:107C8600615149462141454B311814127F10274551
:107C96004545393C4A494930017109050336494988
:107CA6004936064949291E00363600000056360078
:107CB600000008142241141414141441221408005C
:107CC6000201510906324979413E7E1111117E7F2A
:107CD600494949363E414141227F4141221C7F4963
:107CE6004949417F090901013E414151327F080856
:107CF600087F00417F41002040413F017F08142258
:107D0600417F404040407F0204027F7F0408107F8D
:107D16003E4141413E7F090909063E4151215E7FB0
:107D260009192946464949493101017F01013F4068
:107D360040403F1F2040201F7F2018207F631408EB
:107D460014630304780403615149454300007F41ED
:107D560041020408102041417F0000040201020490
:107D66004040404040000102040020545454787FB3
:107D7600484444383844444420384444487F3854BE
:107D8600545418087E090102081454543C7F080410
:107D9600047800447D40002040443D00007F1028C8
:107DA6004400417F40007C041804787C0804047871
:107DB60038444444387C14141408081414187C7C81
:107DC600080404084854545420043F4440203C40CE
:107DD60040207C1C2040201C3C4030403C44281065
:107DE60028440C5050503C4464544C4400083641DE
:107DF6000000007F0000004136080008082A1C0821
:107E0600081C2A0808000000000000005F000000AF
:107E160007000700147F147F14242A7F2A122313D5
:107E260008646236495522500005030000001C22F2
:107E360041000041221C00082A1C2A0808083E08A6
:107E4600080050300000080808080800303000001C
:107E560020100804023E5149453E00427F40004240
:107E6600615149462141454B311814127F1027456F
:107E76004545393C4A4949300171090503364949A6
:107E86004936064949291E00363600000056360096
:107E9600000008142241141414141441221408007A
:107EA6000201510906324979413E7E1111117E7F48
:107EB600494949363E414141227F4141221C7F4981
:107EC6004949417F090901013E414151327F080874
:107ED600087F00417F41002040413F017F08142276
:107EE600417F404040407F0204027F7F0408107FAC
:107EF6003E4141413E7F090909063E4151215E7FCF
:107F060009192946464949493101017F01013F4086
:107F160040403F1F2040201F7F2018207F63140809
:107F260014630304780403615149454300007F410B
:107F360041020408102041417F00000402010204AE
:107F46004040404040000102040020545454787FD1
:107F5600484444383844444420384444487F3854DC
:107F6600545418087E090102081454543C7F08042E
:107F7600047800447D40002040443D00007F1028E6
:107F86004400417F40007C041804787C080404788F
:107F960038444444387C14141408081414187C7C9F
:107FA600080404084854545420043F4440203C40EC
:107FB60040207C1C2040201C3C4030403C44281083
:107FC60028440C5050503C4464544C4400083641FC
:107FD6000000007F0000004136080008082A1C083F
:107FE600081C2A0808014554495120544543484E67
:0A7FF6004F4C4F474945530000006F
:020000040020DA
:08000000FFFFFFFFFFFFFFFF00
:020000040030CA
:0E000000040C1F1EFF8085FF0FC00FE00F4095
:00000001FF
