:0400000056EF36F091
:106C9E0000F01200380E8012C00E921612001B6AFF
:106CAE001A6A000EF86E00010DEF37F0016EFA0E43
:106CBE0000F0E82EFDD7012EFAD71200026E000E5C
:106CCE00036E04D0050E5DEC36F0032A0350025C11
:106CDE00D8A01200F7D751EC36F0000E0C6E06D08D
:106CEE000CC009F03F0EF5EC36F00C2A020E0C64C7
:106CFE00F7D7120001C0F6FF02C0F7FFF86A070EC1
:106D0E00F76403D00800F55005D0F6CFE9FFF7CFB2
:106D1E00EAFFEF501200036E956880828094035054
:106D2E00B7EC36F080804FEC36F083CF02F08090D7
:106D3E000350A4EC36F002501200016E06D080888B
:106D4E000ED080860CD0808A0AD00150000AD8B4AA
:106D5E00F6D7010AD8B4F5D7030AD8B4F4D712007F
:106D6E00016E06D080980ED080960CD0809A0AD0F4
:106D7E000150000AD8B4F6D7010AD8B4F5D7030AE1
:106D8E00D8B4F4D71200046E000E056E0BD0000EB0
:106D9E00066E04D0640E65EC36F0062A090E066403
:106DAE00F9D7052A0450055CD8B01200F0D7000EB2
:106DBE00106E10D010C00CF0000E90EC37F0000EDC
:106DCE000F6E04D0000E5CEC37F00F2A7F0E0F64AE
:106DDE00F9D7102A070E1064EDD712000B6E09506A
:106DEE0092EC36F00A6E0ABEFAD7000E956EF90EC8
:106DFE0080160950B7EC36F00BC083FF80804FEC45
:106E0E0036F080900950A4EC36F01200070EB41242
:106E1E000F0EC16E72EC36F0DEEC36F07B0E106E9D
:106E2E00FE0E0F6E000E116E000E126E800E136EA1
:106E3E00400E146E29EC37F0020ECAEC36F0DEEC82
:106E4E0036F0ECD7000E196E19D0125019240C6EB4
:106E5E00115090EC37F0000E186E0BD010C002F0EF
:106E6E000FC001F081EC36F05CEC37F00F4A102ABF
:106E7E00182A1350185CD8A0F1D7192A14C001F0A3
:106E8E00026A000E046E080E036ECCEC37F0195039
:106E9E00156E166A1650800A176E0150155C025058
:106EAE00800A1758D8B01200D0D70A6E1AC001F057
:106EBE00026A000E046E400E036ECCEC37F00150E9
:106ECE0092EC36F0096E09BEF1D7000E956E8092E7
:106EDE0080840AC083FF1AC001F0026A000E046E9D
:106EEE00400E036ECCEC37F00150B7EC36F08080DC
:106EFE004FEC36F080901AC001F0026A000E046E5C
:106F0E00400E036ECCEC37F00150A4EC36F01A2A8A
:106F1E0012000D6E0DC01AF00CC01BF0000E0E6E9E
:106F2E0011D00EC009F0400EF5EC36F00EC009F08F
:106F3E000C50B809F5EC36F00EC009F0C00EF5ECA9
:106F4E0036F00E2A010E0E64ECD70DC001F0026A67
:106F5E00000E046E400E036ECCEC37F00150096E3D
:106F6E000D503F0B4009F5EC36F00DC001F0026AF2
:106F7E00000E046E400E036ECCEC37F00150096E1D
:106F8E000C50B809F5EC36F01200000E066E0450E7
:106F9E00800AF36E800EF35C000ED8B4035CD8B09A
:106FAE0006D0036C041ED8B0042A010E066E0250E1
:106FBE00800AF36E800EF35C000ED8B4015CD8B07C
:106FCE0006D0016C021ED8B0022A010E061A000E5F
:106FDE00086E000E076E04500310D8B41CD0010EBC
:106FEE00056E04D0D89003360436052A04AEFAD7BF
:106FFE00D890073608360350015C04500258D8A0CA
:10700E0005D00350015E0450025A0780D890043216
:10701E000332052EEDD70650D8B404D0076C081EE7
:10702E00D8B0082A07C001F008C002F0120000FF15
:10703E00FFFFFFFFFFFFFFFFFFFFFFFFFFFFFFFF52
:10704E00FFFFFFFFFFFFFFFFFFFFFFFFFFFFFFFF42
:10705E00FFFFFFFFFFFFFFFFFFFFFFFFFFFFFFFF32
:10706E00FFFFFFFFFFFFFFFFFFFFFFFFFFFFFFFF22
:10707E00FFFFFFFFFFFFFFFFFFFFFF3F3F3F3F3FD2
:10708E003F3F3F3FFFFFFFFFFFFFFFFFFF7F3F3F02
:10709E003F3F3F3F7FFFFFFFFFFFFFFFFFFFFFFF72
:1070AE00FFFFFFFFFFFFFFFFFFFFFFFFFFFFFFFFE2
:1070BE007F7F7F7F7F7F7F7FFFFFFFFF7F7F7F7FD2
:1070CE007F7F7F7F7F7FFFFFFFFFFFFFFF7F7F7F42
:1070DE007F7F7F7F7F7F7F7FFFFFFFFFFFFFFFFFB2
:1070EE00FFFFFFFFFF7F7F7F7F7F7F7F7F7F7F7F22
:1070FE007F7F7FFFFFFFFFFF7F7F7F00000000008D
:10710E00000000007F7F7F7F7F7F7FFFFF706060CA
:10711E006060606070FFFFFFFFFFFFFFFFFFFF7FFC
:10712E007F7F7F7F7F7F7F7F7F7F7F7F7FFFFFFFE1
:10713E00000000000000E0FFFFFF1F030000000042
:10714E000000C0F0F8FEFF3F1F0F0301000000001B
:10715E000000000000000000FFFFFFFFFF0F070709
:10716E00030301010000E0E0E0E0E00000000000A9
:10717E00000000FFEFE7E1E0E0E0E00000000000CB
:10718E0000000000E0E0E0E0F0F8FEFFFF0000008D
:10719E000000000000FFFF0F0707030301000000BF
:1071AE00E0E0E0E0000000000000000000FFFFFF54
:1071BE0000000000C0FEFF3F070000000080E0F866
:1071CE00FC3F1F0F03010000000000000000000044
:1071DE0080C0C0E0F0F8F8FCFFFFFFFFFF000000EA
:1071EE00000000000000070707070700008080C0AE
:1071FE00C0E0E0FFFFFFFFFFFFFFFF000000000009
:10720E0000000000FFFFFFFFFFFFFFFFFF00000079
:10721E000000000000FFFF00000000000000000062
:10722E00FFFFFFFF000000000000000000FFFFFF57
:10723E00000080F87F0F010080C0F03C1F0F03019B
:10724E0000000000008080C0E0F0F0783C3E1E1F81
:10725E000F0F070703010100FFFFFFFFFF000000F4
:10726E000000000000007E7E7E7E7E1E1F1F1F1F00
:10727E001F1F1FFFFFFFFFFFFFFFFF0000000000AB
:10728E0000000000FFFFFFFFFFFFFFFFFF000000F9
:10729E000000000000FFFF000000000000000000E2
:1072AE007F7F7F7F000000000000000000FFFFFFD7
:1072BE0080F03F07C030180E03018080C060603040
:1072CE00181C0C0E070703818180C0C0C0E0E0E0EF
:1072DE00F0F0F0F0F878787CFFFFFFFFFFE0E0E0E1
:1072EE00E0E0E0E0E0E0E0E0E0E0E0F0F0F8F8FC24
:1072FE00FCFEFFFFFFFFFFFFFFFFFFE0E0E0E0E02F
:10730E00E0E0E0E0FFFFFFFFFFFFFFFFFFE0E0E058
:10731E00E0E0E0E0E0FFFFE0E0E0E0E0E0E0E0E021
:10732E00E0E0E0E0000000000000000000FFFFFFD2
:10733E009FCDC0E1F0E8E4E4B291919898988C8CDE
:10734E008C8E8686878787838383838381818181E1
:10735E008080808080808080FFFFFFFFFFFF0F0F07
:10736E00DFFF3F1F5F1F3FFF3F1FDFDFFF0707DF0F
:10737E001F3FFF1F1FDF1F3FFF3F1FDF1F3FFF0787
:10738E0007FF3F1FDF1F3FFF3F1FDF1F1FFF1313AF
:10739E00FF3F1F5F1F3FFF3F1F5FDFFFFFFFFFFF2F
:1073AE00FFFFFFFFC0C0C0C0C0C0C0C0C0FFFFFF16
:1073BE00FFFFFFFFFFFFFFFFFFFFFFFFFFFFFFFFCF
:1073CE00FFFFFFFFFFFFFFFFFFFFFFFFFFFFFFFFBF
:1073DE00FFFFFFFFFFFFFFFFFFFFFFFFFFFFFCF8B9
:1073EE00FBFFFCF8FBFBFBFFFCF8FBFBFFF8F8FFD9
:1073FE00F8F8FFF8F8FFF8F8FFFCF8FBF8FCFFF8D8
:10740E00F8FFFCF8FBF8FCFFE5E0EAE2F3FFF8F822
:10741E00FFFCF8FBFBFBFFFBFAF8FCFFFFFFFFFF97
:10742E00FFFFFFFFFFFFFFFFFFFFFFFFFFFFFF005D
:10743E00000000000000000000000000000000003E
:10744E00000000000000000000000000000000002E
:10745E00000000000000000000000000000000001E
:10746E00000000000000000000000000000000000E
:10747E0000000000000000000000000000000000FE
:10748E0000000000000000000000000000000000EE
:10749E0000000000000000000000000000000000DE
:1074AE0000000000000000000000000000000000CE
:1074BE0000000000000000000000000000000000BE
:1074CE0000000000000000000000000000000000AE
:1074DE000000000080E0E0F8F8FCFC7E3E3F7FFFFD
:1074EE00FFFFFFFFFFFF7F3F3E3EF8E0C0000000C2
:1074FE00000000000000000000000000000000007E
:10750E00000000000000000000000000000000006D
:10751E00000000000000000000000000000000005D
:10752E00000000000000000000000000000000004D
:10753E00000000000000000000000000000000003D
:10754E00000000000000000000000000000000002D
:10755E000000F0FEFF7F3F1F7FF1E0800000000083
:10756E0003071F3FF3E1800000000001071F3EF8F4
:10757E00F0C08000000000000000000000000000CD
:10758E0000000000000000000000000000000000ED
:10759E0000000000000000000000000000000000DD
:1075AE0000000000000000000000000000000000CD
:1075BE0000000000000000000000000000000000BD
:1075CE0000000000000000000000000000000000AD
:1075DE00000007030100000080E0F3FFFEFCF0E076
:1075EE008000000000C3E7FFFCF0E0800000000018
:1075FE00010707000000000000000000000000006E
:10760E00000000000000000000000000000000006C
:10761E00000000000000000000000000000000005C
:10762E00000000000000000000000000000000004C
:10763E00000000000000000000000000000000003C
:10764E00000000000000000000000000000000002C
:10765E0000000000000000070F0F1F1F3F3F3F3FBD
:10766E007F7F7E7E7F7F3F3F3F1F1F0F0F040000F7
:10767E0000000000000000000000000000000000FC
:10768E0000000000000000000000000000000000EC
:10769E0000000000000000000000000000000000DC
:1076AE0000000000000000000000000000000000CC
:1076BE00000000000000E0FFFF7FFCF08000C0F043
:1076CE00FE3FFFFE000000F0F00000F0F0783838CA
:1076DE00383838300000F0F03030303030F0F00014
:1076EE00C0F0F07838383838F0F0C000E0F0783874
:1076FE0038383838300000F0F08080808080F0F02C
:10770E000000F0F00000F0F03030303030F0F0C01B
:10771E00000000000000000000000000000000005B
:10772E00000000000000000000000000000000004B
:10773E000000000000203F3F0700010F3F3E1F0FDB
:10774E0001003F3F3F00003F3F00003F3F70707021
:10775E007070703000003F3F0E0E0E0E0E3F3B005D
:10776E000F3F3F70707070703F3F0F001F3F78707B
:10777E00707070703010003F3F03030303033F3FF0
:10778E0000003F3F00003F3F0E0E0E0E0E0F070192
:10779E0000000000000000000000000000000000DB
:1077AE0000000000000000000000000000000000CB
:1077BE0000000000000000000000000000000000BB
:1077CE0000000000000000000000000000000000AB
:1077DE00000000000000000000000000000000009B
:1077EE00000000000000000000000000000000008B
:1077FE00000000000000000000000000000000007B
:10780E00000000000000000000000000000000006A
:10781E00000000000000000000000000000000005A
:10782E00000000000000000000000000000000004A
:10783E000000000000005F00000007000700147F3A
:10784E00147F14242A7F2A122313086462364955A2
:10785E0022500005030000001C2241000041221CA2
:10786E0000082A1C2A0808083E08080050300000AC
:10787E000808080808003030000020100804023EF6
:10788E005149453E00427F400042615149462141E7
:10789E00454B311814127F1027454545393C4A494E
:1078AE0049300171090503364949493606494929C6
:1078BE001E00363600000056360000000814224125
:1078CE001414141414412214080002015109063232
:1078DE004979413E7E1111117E7F494949363E411B
:1078EE004141227F4141221C7F494949417F09097B
:1078FE0001013E414151327F0808087F00417F411E
:10790E00002040413F017F081422417F404040400B
:10791E007F0204027F7F0408107F3E4141413E7F7B
:10792E00090909063E4151215E7F0919294646493A
:10793E0049493101017F01013F4040403F1F204036
:10794E00201F7F2018207F6314081463030478041B
:10795E0003615149454300007F4141020408102054
:10796E0041417F00000402010204404040404000BB
:10797E000102040020545454787F4844443838445B
:10798E00444420384444487F3854545418087E09DF
:10799E000102081454543C7F0804047800447D40CE
:1079AE00002040443D00007F10284400417F4000ED
:1079BE007C041804787C0804047838444444387CE9
:1079CE0014141408081414187C7C08040408485471
:1079DE00545420043F4440203C4040207C1C204016
:1079EE00201C3C4030403C44281028440C50505041
:1079FE003C4464544C44000836410000007F0000B3
:107A0E00004136080008082A1C08081C2A0808002D
:107A1E000000000000005F00000007000700147F58
:107A2E00147F14242A7F2A122313086462364955C0
:107A3E0022500005030000001C2241000041221CC0
:107A4E0000082A1C2A0808083E08080050300000CA
:107A5E000808080808003030000020100804023E14
:107A6E005149453E00427F40004261514946214105
:107A7E00454B311814127F1027454545393C4A496C
:107A8E0049300171090503364949493606494929E4
:107A9E001E00363600000056360000000814224143
:107AAE001414141414412214080002015109063250
:107ABE004979413E7E1111117E7F494949363E4139
:107ACE004141227F4141221C7F494949417F090999
:107ADE0001013E414151327F0808087F00417F413C
:107AEE00002040413F017F081422417F404040402A
:107AFE007F0204027F7F0408107F3E4141413E7F9A
:107B0E00090909063E4151215E7F09192946464958
:107B1E0049493101017F01013F4040403F1F204054
:107B2E00201F7F2018207F63140814630304780439
:107B3E0003615149454300007F4141020408102072
:107B4E0041417F00000402010204404040404000D9
:107B5E000102040020545454787F48444438384479
:107B6E00444420384444487F3854545418087E09FD
:107B7E000102081454543C7F0804047800447D40EC
:107B8E00002040443D00007F10284400417F40000B
:107B9E007C041804787C0804047838444444387C07
:107BAE0014141408081414187C7C0804040848548F
:107BBE00545420043F4440203C4040207C1C204034
:107BCE00201C3C4030403C44281028440C5050505F
:107BDE003C4464544C44000836410000007F0000D1
:107BEE00004136080008082A1C08081C2A0808014B
:107BFE000000000000000000000000000000000077
:107C0E000000000000000000000000000000000066
:107C1E000000000000000000000000000000000056
:107C2E000000000000000000000000000000000046
:107C3E00000000000000000000000000C0C0C0C036
:107C4E00C0C0C0C0C000000000000000000080C026
:107C5E00C0C0C0C0C08000000000000000000000D6
:107C6E000000000000000000000000000000000006
:107C7E000080808080808080800000000080808076
:107C8E008080808080808000000000000000808066
:107C9E008080808080808080800000000000000056
:107CAE0000000000000080808080808080808080C6
:107CBE00808080800000000000808080FFFFFFFF3A
:107CCE00FFFFFFFFFF8080808080808000008F9FFD
:107CDE009F9F9F9F9F8F00000000000000000000EC
:107CEE008080808080808080808080808080000086
:107CFE0000FFFFFFFFFFFF1F000000E0FCFFFFFF84
:107D0E00FFFFFF3F0F070100C0E0F0FCFEFFFFFF8B
:107D1E00FFFFFFFFFFFFFFFFFF0000000000F0F876
:107D2E00F8FCFCFEFEFFFF1F1F1F1F1FFFFFFFFFC4
:107D3E00FFFFFFFF0010181E1F1F1F1FFFFFFFFF7B
:107D4E00FFFFFFFFFF1F1F1F1F0F07010000FFFF99
:107D5E00FFFFFFFFFFFF0000F0F8F8FCFCFEFFFF47
:107D6E00FF1F1F1F1FFFFFFFFFFFFFFFFFFF000093
:107D7E0000FFFFFFFF3F0100C0F8FFFFFFFF7F1F67
:107D8E000703C0E0F0FCFEFFFFFFFFFFFFFFFFFF5A
:107D9E00FF7F3F3F1F0F0707030000000000FFFF9C
:107DAE00FFFFFFFFFFFFFFF8F8F8F8F8FFFF7F7FF8
:107DBE003F3F1F1F0000000000000000FFFFFFFFFD
:107DCE00FFFFFFFFFF000000000000000000FFFFAC
:107DDE00FFFFFFFFFFFF0000FFFFFFFFFFFFFFFFA3
:107DEE00FF00000000FFFFFFFFFFFFFFFFFF00008F
:107DFE0000FFFF7F0780F0FEFF7F3F0FC3E0F0FC28
:107E0E00FEFFFFFFFFFF7F7F3F1F0F0F87C3C1E105
:107E1E00E0F0F0F8F8FCFEFEFF0000000000FFFFAF
:107E2E00FFFFFFFFFFFFFF8181818181E1E0E0E045
:107E3E00E0E0E0E00000000000000000FFFFFFFFB8
:107E4E00FFFFFFFFFF000000000000000000FFFF2B
:107E5E00FFFFFFFFFFFF0000FFFFFFFFFFFFFFFF22
:107E6E00FF80808080FFFFFFFFFFFFFFFFFF00000E
:107E7E00007F0FC0F83FCFE7F1FCFE7F7F3F9F9F53
:107E8E00CFE7E3F3F1F8F8FC7E7E7F3F3F3F1F1F05
:107E9E001F0F0F0F0F0787878300000000001F1FA3
:107EAE001F1F1F1F1F1F1F1F1F1F1F1F0F0F070724
:107EBE000303010000000000000000001F1F1F1F31
:107ECE001F1F1F1F1F0000000000000000001F1FCB
:107EDE001F1F1F1F1F1F00001F1F1F1F1F1F1F1FE2
:107EEE001F1F1F1F1FFFFFFFFFFFFFFFFFFF0000F2
:107EFE000060323F1E0F171B1B4D6E6E6767677358
:107F0E0073737179797878787C7C7C7C7C7E7E7ECC
:107F1E007E7F7F7F7F7F7F7F7F000000000000F0ED
:107F2E00F02000C0E0A0E0C000C0E0202000F8F883
:107F3E0020E0C000E0E020E0C000C0E020E0C00093
:107F4E00F8F800C0E020E0C000C0E020E0E000EC67
:107F5E00EC00C0E0A0E0C000C0E0A02000000000E7
:107F6E0000000000003F3F3F3F3F3F3F3F3F0000CC
:107F7E0000000000000000000000000000000000F3
:107F8E0000000000000000000000000000000000E3
:107F9E0000000000000000000000000000000003D0
:107FAE000704000307040404000307040400070782
:107FBE000007070007070007070003070407030071
:107FCE000707000307040703001A1F151D0C0007FF
:107FDE000700030704040400040507030000000063
:107FEE000000000000000000000000000000000083
:027FFE00000081
:020000040020DA
:08000000FFFFFFFFFFFFFFFF00
:020000040030CA
:0E000000040C1F1EFF8081FF0FC00FE00F4099
:00000001FF
